:020000040800F2
:10000000402500207902000875150008490C0008F9
:100010007115000861050008751D0008000000004A
:100020000000000000000000000000006116000851
:10003000C707000800000000F3150008910200083F
:10004000930200089302000893020008930200083C
:10005000930200089302000893020008930200082C
:10006000930200089302000893020008930200081C
:10007000930200089302000893020008930200080C
:100080009302000800000000930200089302000899
:1000900093020008930200089302000893020008EC
:1000A00093020008930200089302000893020008DC
:1000B00093020008930200089302000893020008CC
:1000C00093020008930200089302000893020008BC
:1000D00093020008930200089302000893020008AC
:1000E000930200089302000893020008930200089C
:1000F0009302000893020008930200080000000029
:1001000000000000930200080000000093020008B5
:100110009302000800000000930200089302000808
:10012000930200089302000893020008930200085B
:100130009302000800000000000000009302000885
:100140009302000893020008000000000000000075
:10015000000000000000000000000000000000009F
:1001600000000000000000000000000093020008F2
:1001700093020008000000000000000000000000E2
:1001800000000000930200080000000000000000D2
:10019000000000000000000000000000000000005F
:1001A0000000000000000000930200089302000815
:1001B0009302000893020008930200080000000068
:1001C0000000000093020008000000000000000092
:1001D000930200089302000800F002F800F03CF8D7
:1001E0000AA090E8000C82448344AAF10107DA4592
:1001F00001D100F031F8AFF2090EBAE80F0013F0A8
:10020000010F18BFFB1A43F001031847381D000007
:10021000581D0000103A24BF78C878C1FAD8520798
:1002200024BF30C830C144BF04680C607047000070
:100230000023002400250026103A28BF78C1FBD8EF
:10024000520728BF30C148BF0B6070471FB501F08F
:1002500060FE1FBD10B510BD00F047F91146FFF755
:10026000F5FF01F04BFE00F065F903B4FFF7F2FF74
:1002700003BC00F06DF900000948804709480047B9
:10028000FEE7FEE7FEE7FEE7FEE7FEE7FEE7FEE746
:10029000FEE7FEE704480549054A064B70470000A3
:1002A00077170008D9010008401F002040250020D2
:1002B000402100204021002053EA020C00F0698018
:1002C0002DE9F04B4FF00006002B1FBFB3FA83F56A
:1002D00003FA05F424FA05F65E4012BF1643B2FA9B
:1002E00082F502FA05F4C5F120051EBF22FA05FCCD
:1002F00044EA0C04203556EA044C4FEA144418BF73
:10030000641C4FF000084FF00009904271EB030CA1
:1003100039D3002919BFB1FA81F701FA07F6B0FA0B
:1003200080F700FA07F6C7F120071EBF20FA07FC86
:1003300046EA0C062037B6FBF4FCA7EB0507103F96
:1003400007F01F0BCBF120062CFA06F60CFA0BFB7C
:1003500044BFB3460026202FA4BF5E464FF0000BDB
:100360005BEA060C08BF4FF0010B19EB0B0948EBD9
:100370000608ABFB027C06FB02CC0BFB03CCC01BCC
:1003800071EB0C01C1E70B46024641464846BDE809
:10039000F08B13B5084318BF4FF0FF300146AFF3A1
:1003A0000080BDE81C407047032A40F2308010F006
:1003B000030C00F0158011F8013BBCF1020F624400
:1003C00098BF11F801CB00F8013B38BF11F8013B91
:1003D000A2F1040298BF00F801CB38BF00F8013B3E
:1003E00011F0030300F04F80083AC0F0088051F884
:1003F000043B083A51F804CBA0E80810F5E7121DB9
:100400005CBF51F8043B40F8043BAFF30080D207D7
:1004100024BF11F8013B11F801CB48BF11F8012BA3
:1004200024BF00F8013B00F801CB48BF00F8012BC6
:1004300070474FF0000200B51346944696462039A7
:1004400022BFA0E80C50A0E80C50B1F12001BFF48D
:10045000F7AF090728BFA0E80C5048BF0CC05DF8F3
:1004600004EB890028BF40F8042B08BF704748BF41
:1004700020F8022B11F0804F18BF00F8012B7047B5
:1004800070477047704710B5203AC0F00B80B1E854
:100490001850A0E81850B1E81850A0E81850203AB9
:1004A000BFF4F5AF5FEA027C24BFB1E81850A0E8C2
:1004B000185044BF18C918C0BDE810405FEA827CDC
:1004C00024BF51F8043B40F8043B08BF7047D207F3
:1004D00028BF31F8023B48BF11F8012B28BF20F894
:1004E000023B48BF00F8012B7047754600F02CF81E
:1004F000AE4605006946534620F00700854618B011
:1005000020B5FFF7C7FEBDE820404FF000064FF0D2
:1005100000074FF000084FF0000BAC46ACE8C009F4
:10052000ACE8C009ACE8C009ACE8C00921F007019B
:100530008D46704710B50446AFF300802046BDE8F5
:100540001040FFF792BE00000048704708000020EE
:1005500001491820ABBEFEE72600020070470000EC
:10056000FEE7000010B543F2000EC4F2020EDEF802
:1005700008205FEA910C42F00102CEF808200AD070
:100580000346624653F8044B013A94FAA4F4CEF8B9
:100590000040F7D101E04FF0000CDEF800201823F6
:1005A00003EAC10392FAA2F1BBB1DEF800204FF0DA
:1005B000FF34CEF8002050F82C00C3F12002D440C4
:1005C0002040484090FAA0F0D040CEF80000DEF87D
:1005D0000000D94090FAA0F04140C84310BD43F25A
:1005E0000800C4F20200016841F00101016041F617
:1005F000B751C0F2C141C1604FF0FF318160016865
:1006000021F060010160016821F08001016041F288
:100610004800C4F20200016821F480510160704773
:1006200081B041F24800C4F20200016841F48051F7
:100630000160006841F6B75100F4805000900098C6
:1006400043F20800C4F20200C0F2C141C1604FF0A1
:10065000FF318160016821F060010160016821F0D3
:100660008001016001B07047002221B110F8013B08
:1006700001391A44FAD15042C0B27047B0B54FF0B8
:10068000000C8BB14FF0000E0EEB0204A5B2B5FBCF
:10069000F1F50EF1010E05FB11441FFA8EF5E4B2DF
:1006A000045D9D42A444EFD3CCF10000C0B2B0BDC4
:1006B00047F20001C4F200010A6842F480720A6045
:1006C00042F20052C4F20002136823EA00001060F4
:1006D000086820F480700860704710B50024C4F2E8
:1006E0000204A0684FF4006120F00100A060E069FE
:1006F00020F00100E0614EF28010CEF200000160B7
:10070000BFF34F8F4FF48051BFF36F8F0160BFF382
:100710004F8F20460021BFF36F8F00F0A9FA2046CB
:10072000012100F0A5FA41F24800C4F2020001687C
:1007300021F001010160016821F00401016010BD98
:1007400082B041F24800C4F2020001684EF60C5C2F
:1007500041F0040101600168CEF2000C01F00401D7
:10076000009100990168002241F0010101600068D8
:100770004EF2001300F0010001900198DCF8001027
:100780004EF20B41CEF200010A70CEF200034FF49C
:1007900000601860DCF800004A704FF48050186068
:1007A00002B0704780B500F0ADF9FFF796FF00F09A
:1007B00013FD01F0AEF801F05EF8FFF710FFBDE8A1
:1007C000804000F0E1BF70472DE9F04381B041F671
:1007D0003854C2F200042078002800F0E98041F685
:1007E0003958C2F2000898F8003040F26806C2F2A8
:1007F0000006862213FB02610F79072F00F2C580E5
:100800005A43B25C0531DFE807F004262DC03650AC
:100810005A6B41F6A049042AC2F200090AD100220B
:1008200065A600BF8D5CB75CBD4200F093800132CD
:10083000042AF7D199F80010002940F08E8041F683
:100840004231C2F2000104220A7041F64131C2F283
:10085000000103227CE0862013FB0060807800F01A
:1008600099FD63E0FFF79EFF42F60000C0F600002E
:1008700000F0F8FE5AE041F64445C2F20005E8688F
:10088000C10242F60000C0F60000FFF76BFE2968C7
:100890000422884208BF052241F6403098F8001033
:1008A000C2F200000270481C43E0042A4BD10968E0
:1008B00041F6444209BAC2F20002116265E041F613
:1008C0004330C2F20000027041F64032C2F2000230
:1008D00006211278C1700021A0F80110027123E0F6
:1008E00041F64330C2F200000721C1700021A0F898
:1008F000011041F644410270C2F200018A68C271DF
:100900008A68120A82718A68120C42718A68120E11
:1009100002718A69C2728A69120A82728A69120C29
:1009200042728969090E017201F0FAF998F8000023
:1009300001304EF28F314143490D01EBC101A0EB73
:10094000810120782AE041F64231C2F200010422FE
:100950000A701AE0012089F8000041F64330C2F223
:100960000000042101604BF20611CFF64E114160E8
:1009700001F0D6F940F20400C2F20000002101703B
:1009800098F80030207889F80010591C4EF28F3208
:100990004A43520D02EBC202A1EB820101382070E2
:1009A00041F63B5088F80010C2F2000000210170AF
:1009B000002001B0BDE8F0830531F6B942F2100025
:1009C000C4F20200416821F0010141600168C903DD
:1009D000FCD448F2FB010160416841F000414160F4
:1009E0000168C903FCD448F2FB01016070470000B4
:1009F00042F2100140F22312C4F20201C4F2675223
:100A000041F8082C48F6AB12CCF6EF5241F8082C0E
:100A10000A68D203FCD448F2FB020A604A6822F456
:100A2000FC7242EAC00048600868C003FCD448F287
:100A3000FB000860486840F0020048600868C00396
:100A4000FCD448F2FB000860486840F480304860FD
:100A50000868C003FCD448F2FB000860486820F036
:100A600002004860486840F0010048600868C00320
:100A7000FCD448F2FB00086070470000B0B50446A3
:100A80000438C0B23B2836D842F210052046C4F2E2
:100A90000205FFF7ADFFE00241F2403100F10060D6
:100AA0000023C2F2000148F2FB0C002451F823207D
:100AB000013204D101EB83025268013219D0EFF305
:100AC000108272B651F8232040F82320631C9AB29A
:100AD00051F8224040F8224062B600BF2A68D20393
:100AE000FCD4C5F800C05C1CA3B2B3F5007FDDD315
:100AF00003E0631CF7E7012400E00024FFF75EFF3A
:100B00002046B0BDF0B587B041F60C0001AC002620
:100B1000019003274FF090402146CDE90566CDE9CD
:100B20000366029700F060F940F200456020C4F6C9
:100B30000005CDE9010728462146059600F054F945
:100B40000120CDE9010728462146059600F04CF921
:100B500041F24C00C4F20200016821F00101016081
:100B6000016821F00201016007B0F0BD2DE9F047F6
:100B700088B0002641F24C000696C4F202000168DB
:100B800040F2004441F0200101600168C4F6000415
:100B900001F020010791079901684FF4805941F055
:100BA0000101016001684FF0200A01F00101079185
:100BB000079901684FF0400841F0020101600068A8
:100BC0004FF4006100F00200079007984FF61840BC
:100BD000CFF6FF7001AD215044F80090C4F818A082
:100BE000C4F81880019101274FF090402946CDE9C3
:100BF0000276CDE9046600F0F7F84FF09040294600
:100C0000CDE90197CDE90366059600F0EDF82046A1
:100C10002946CDE901A7CDE90366059600F0E4F881
:100C200020462946CDE90187CDE90366059600F007
:100C3000DBF808B0BDE8F08742F20051C4F20001D1
:100C40000968084070470000FEE780B500F02AFD03
:100C5000FFF78CFFFFF774FD00F0DAFA00F07CFE7E
:100C600000F02CFEFFF7DCFCBDE8804000F0BDBDCD
:100C700010B511F5803F17D140F20041C4F20201D6
:100C800088424ED00021C4F20201884240F099808F
:100C900041F22800C4F20200016841F00101016044
:100CA000016821F0010147E00023C4F2020340F291
:100CB0001C4C9842C4F2020C08BF00293ED003F538
:100CC0008062904208BF00293BD0984208BF0129AA
:100CD0003AD0904208BF012939D0984208BF022972
:100CE00037D0904208BF022936D0984208BF032966
:100CF00035D0904208BF032934D0984208BF042958
:100D000033D0904208BF042932D080EA030E81F02C
:100D100005040CF1500254EA0E0408BF03F16C0202
:100D200028E041F22800C4F20200016841F002010B
:100D30000160016821F00201016052E003F1080244
:100D400018E003F5816215E003F11C0212E062462F
:100D500010E003F130020DE00CF114020AE003F19F
:100D6000440207E00CF1280204E003F1580201E01C
:100D70000CF13C02136823F0010313604FF00003F1
:100D8000136053609360D3606FF0070202EAD012E1
:100D900082F4000282F480620CEB810303EB820296
:100DA000D2F8E43323F0FF03C2F8E43359B1013938
:100DB000042906D8DFE801F003090C0F1200102106
:100DC0000EE0012010BD01210AE04FF4807107E020
:100DD0004FF4805104E04FF4803101E04FF4801172
:100DE0004160002010BD00002DE9F04F0C6894FA1E
:100DF000A4F2B2FA82F234FA02F361D04FF00108A1
:100E00004FF0030B08FA02F314EA030C54D0D1F8A4
:100E10000490A9F10103022B1CD29CFAACF6B6FA9D
:100E200086F77E00D0F808A00BFA06F3D1E902BEDF
:100E30002AEA030A0BFA06F545EA0A0585604568C1
:100E40004FF0030BA5430EFB04F4DB432543456041
:100E500008E000BF9CFAACF3B3FA83F77E000BFA0C
:100E600006F3DB430D69C468B5401C402543B9F166
:100E7000020FC56019D14FEA1C2494FAA4F4D1F8EA
:100E800014E0BCF5807F28BFB4FA84F74FF0240447
:100E900038BF202450F804C0BF000F25BD402CEA05
:100EA00005050EFA07F72F430751D1E900470568FA
:100EB000B7402B403B430360013234FA02F3A1D127
:100EC0000020BDE8F08F44F6D351C1F26201A0FBCF
:100ED00001014FF0FF3000EB91104EF21001CEF205
:100EE000000148600020886005200860704748F2D3
:100EF0000001C4F2000188421CBF0120704741F28A
:100F00003C00C4F20200016841F001010160016887
:100F100021F00101016000207047000070B5044617
:100F20000068C00733D10D4620684EF6F311CEF6A7
:100F3000FF7105F1080608404ECE084318433043C0
:100F40002060606820F4405010436060A869A16888
:100F500021F440710843A0604FF4406000F02EF887
:100F6000B8B16A68AAB129880EA333F8111000231A
:100F7000B0FBF1F00026010E000210EB520041F12F
:100F80000001FFF799F96FF31F50E06002E00126BE
:100F900006E001262888E16A21F00F010843E0629B
:100FA000304670BD010002000400060008000A007F
:100FB0000C001000200040008000000110B541F23C
:100FC0000004C4F20204D4F8881008404FEAB020AC
:100FD000032807D002280CD0012813D1BDE8104007
:100FE00000F008BBD4F890004FF4004101EA8030D3
:100FF00010BD206842F200414005C0F2F40101EA50
:10100000E07010BD00F0F6FAA16841F62C72C1F351
:101010000311C0F60002515CA26841F63C73C2F3B2
:101020000222C0F600039A5C01F01F01C84002F0E2
:101030001F01C84010BD40F20001C2F2000108606B
:101040007047014642F6FF30C4F2010081424FF082
:10105000010024DC40F2FF72C4F20002914243DD41
:1010600040F60002C4F2000291426AD041F200024E
:10107000C4F20002914270D041F20042C4F2000278
:10108000914240F0A88041F23800C4F202000168A9
:1010900041F020010160016821F020018CE043F65D
:1010A000FF72C4F20102914233DD44F20002C4F245
:1010B000010291425DD044F20042C4F20102914229
:1010C00063D044F60002C4F20102914218BF704797
:1010D00041F23800C4F20200816841F4802181604D
:1010E000816821F4802174E0B1F1804F59D040F241
:1010F0000042C4F2000291426DD141F23800C4F2C4
:101100000200016841F002010160016821F0020162
:1011100052E042F60042C4F2010291424ED043F244
:101120000042C4F20102914255D141F23800C4F2AA
:101130000200816841F400518160816821F400510E
:1011400047E041F23800C4F20200016841F00401B6
:101150000160016821F004012EE041F23800C4F280
:101160000200016841F010010160016821F01001E6
:1011700022E041F23800C4F20200816841F480317B
:101180008160816821F4803123E041F23800C4F2AB
:101190000200816841F400318160816821F40031EE
:1011A00017E041F23800C4F20200016841F0010189
:1011B0000160016821F0010101600BE041F238009B
:1011C000C4F20200816841F400618160816821F409
:1011D000006181600020704780B548F20000C4F2D1
:1011E0000000016821F00101016000BF0168C9072A
:1011F000FCD1FFF77CFE41F25C00C4F20200016802
:1012000021F001010160C16A21F44061C16280BD29
:101210002DE9F0418EB041F24C00C4F20200C16BE6
:1012200001AD21F44061C163016948F2000441F05D
:10123000010101610169022701F00101079107998C
:101240000168002641F00101016000684FF00C08C0
:1012500000F0010007900798042001904FF09040A3
:101260002946C4F200040297CDE903660596CDF83D
:101270001880FFF7B9FD0820CDE901074FF0904035
:101280002946CDE90366CDE90568FFF7ADFD0820E5
:10129000C4F20200D0F8F817222262F30701C0F866
:1012A000F81701684BF6EF72CFF6FF72114001603C
:1012B0000168232721F440510160016841F02001B9
:1012C0000160016821F040010160016841F0800186
:1012D0000160016821F440710160016821F44061FE
:1012E000016040F60401C4F202010B6867F30703D2
:1012F0000B604169114010314161416921F4405155
:101300004161416921F020014161416921F04001C1
:101310004161416941F080014161416921F44071BD
:101320004161416921F44061416141F60030C0F200
:10133000B700CDE9080607A920460796CDE90A6659
:10134000CDE90C86FFF7EAFD48F20800C4F2000080
:1013500050E8001F21F0604140E80012002AF7D158
:1013600050E8001F21F0606140E80012002AF7D128
:10137000206820F000502060206840F001002060CC
:10138000E0698002FCD5E0694002F9D50EB0BDE805
:10139000F08100002DE9F047814604383B2831D820
:1013A00041F69048C2F20008D8F8004016468A4636
:1013B00084B941F24034C2F2000420464FF4006187
:1013C000C8F80040FFF735F841F68440C2F200004B
:1013D0000021016041F64130C2F200000078C0B344
:1013E00041F24034C2F2000420464FF40061C8F8D4
:1013F0000040FFF71EF841F68441C2F200010020D0
:1014000008602BE041F64230C2F200000421017076
:1014100041F64130C2F200000121017041F6403036
:10142000C2F200000C21017041F24030C2F2000013
:101430004FF40061FEF7FDFF41F69040C2F200005C
:101440000021016041F68440C2F200000160BDE865
:10145000F08741F68440C2F2000000683044B0F5E5
:10146000006F07D941F64030C2F200000C21017034
:10147000BDE8F087B108042E06F0030C0ED30B462E
:101480000AF101022546012998BF012352F8017C87
:10149000013B45F8047B02F10402F7D1BCF1000FD7
:1014A00013D006F0FC020AEB02034FEACC0200273D
:1014B000002600BF13F8015BBD400837BA4246EA78
:1014C0000506F7D144F82160013141F6844504EB6B
:1014D0008101C2F20005B0F5006FC8F80010286065
:1014E00038BFBDE8F08741F24030C2F200004FF44F
:1014F0000061FFF737F841F64446C2F20006316A50
:10150000884220D14846FFF7B9FA41F64030C2F28E
:1015100000000221B9F1040F01701AD142F200005B
:10152000C0F6000001683160416871608168B16097
:10153000C168F16001693161416971618169B161BD
:10154000C069F06105E041F64030C2F200000321BD
:10155000017041F24030C2F200004FF40061FEF72A
:1015600068FF0020C8F800002860BDE8F087000090
:10157000FEE70000FEE70C20C4F20200006880B223
:10158000C0F5807141F62C50C2F20000016041F6B6
:101590009841C2F200010A6803689A4207D141F6F5
:1015A0003850C2F20000007808B3022070470A6881
:1015B00041F64453C2F200039A5C41F64053C2F232
:1015C00000031A701A7841F63C530532C2F2000348
:1015D0001A6000680968401A41F68841C2F20001A9
:1015E00008700878196881429CBF0120704700206C
:1015F0007047704741F20C01C4F2020151F8040C2B
:1016000000F00C0242F200400C2AC0F2F40007D0B5
:10161000082A18BF704741F20020C0F27A007047D4
:101620000A68034602F00302032A04BF41F20023C2
:10163000C0F27A03022A0A6808BF0346C2F30620F2
:101640000A680968C2F3031258430132B0FBF2F092
:10165000C1F34161022202EB4101B0FBF1F070479E
:101660007047000041F24801C4F202014FF080527D
:101670000A6101228A614FF480720A60BFF34F8FC2
:10168000BFF36F8FEFF3108172B64EF60851CEF2B2
:1016900000010860016881F308884068804700BF46
:1016A000FEE7000010B582B042F20000C4F2020072
:1016B0000168042262F30301016000BF016801F0C8
:1016C0000F010429FAD147F20001C4F200010A68AF
:1016D000012341F2000063F34A22C4F202000A60CF
:1016E000016841F48031016001688903FCD5C1685B
:1016F00048F20C02CFF6FF12114042F203421143AE
:10170000C160C16841F08071C160016841F08071C1
:10171000016000BF01688901FCD58168082241F0A1
:1017200003018160816862F307118160816801F0C3
:101730000C010C29FAD155210191019911B101999E
:101740000139F9E7816844F2004421F0F001816039
:101750008168C0F6950421F4E0618160816821F41C
:10176000605181602046FFF7AEFB204602B0BDE825
:101770001040FFF760BC4EF68850CEF200000168C2
:1017800041F470010160704742F20040C4F2000071
:10179000C16A042221F00101C1624EF28011CEF231
:1017A00000010A60BFF34F8FBFF36F8F016821F014
:1017B000010101600121C163C16821F01801C1600C
:1017C00047F20000C4F20000016821F4807101605A
:1017D00041F25800C4F20200816B21F400418163A0
:1017E000016821F480610160704782B041F25800C5
:1017F000C4F202000168022241F0805101600168D8
:1018000001F0805100910099016841F4806101600C
:10181000016801F4806101910199816B41F40041FB
:10182000816347F20000C4F20000016841F4807156
:10183000016042F20040C4F20000016821F00101A1
:101840000160C16862F3C401C160C16A41F0010175
:10185000C162016841F0010101604EF20240CEF226
:101860000000102101704EF20010CEF200000421A1
:10187000016002B0704780B540F20040C4F2000041
:1018800001684FF0005221F001010160C16821F0B0
:101890000101C1604EF28011CEF200010A60BFF377
:1018A0004F8FBFF36F8FFFF7CCFB41F25800C4F2AC
:1018B0000200016821F00201016080BD81B041F2A7
:1018C0005800C4F20200016841F0020101600068A2
:1018D0004DF6836100F002000090009840F2000095
:1018E000C2F200000068C4F21B31A0FB01014FF0FE
:1018F000FF3000EB914040F20041C4F200018862E9
:101900004FF6FF70C862086820F07000086001B0F0
:10191000704780B541F20040C4F2000001684FF406
:10192000000221F001010160C16821F00101C160E4
:101930004EF28411CEF200010A60BFF34F8FBFF365
:101940006F8FFFF77EFB41F25800C4F2020001687E
:1019500021F02001016080BD81B041F25800C4F245
:101960000200016841F02001016000684DF68361CA
:1019700000F020000090009840F20000C2F2000049
:101980000068C4F21B31A0FB01014FF0FF3000EBF7
:10199000914041F20041C4F2000188624FF6FF70AD
:1019A000C862086820F07000086001B07047082025
:1019B000C4F2020001684FF4807321F0010101605C
:1019C00041F64451C2F20001C16048F22401C4F260
:1019D000000181604268043163F30F0242600268D3
:1019E00042F001020260426922F00102426141F6C6
:1019F0004462C2F200020262C1618169FC2262F3A8
:101A00000F01816141F20040C4F2000000214162F7
:101A1000026842F00102026040F20040C4F200009D
:101A20004162016841F6444241F001010160182021
:101A3000C4F600004FF4805101604FF40061016171
:101A40002021C0F800144021C0F8101442F2000018
:101A5000C0F600000168C2F20002116041685160E6
:101A600081689160C168D16001691161416951610A
:101A700081699161C069D0617047000048F2080037
:101A8000C4F2000050E8001F41F0400140E800129D
:101A9000002AF7D150E8001F41F0800140E8001211
:101AA000002AF7D140F22440C4F20000066842F652
:101AB00000040820C0F60004FFF7BEF820B1FEF7CE
:101AC00071FE2046FFF7CEFD41F224450120C4F20D
:101AD0000005FFF7B1F840F2040EC2F2000E58B153
:101AE0004FF0000A01208EF800A0FEF7E1FD40F261
:101AF000040EC2F2000E01E0D5F800A01820AC469A
:101B0000C4F6000041F6944841F6345741F630548B
:101B10001825C2F20008C2F2000700F1100BC2F251
:101B200000044FF00009C4F6000500BF40F2244055
:101B3000C4F200000068C8F80000D8F80010386847
:101B4000B1423CBF01303860D8F80010B14238BF14
:101B500001F58031891B01EB00404AF22011D8F8D1
:101B60000060C0F20701884220D300203860584648
:101B7000294699F0010904BF284659464FF480626E
:101B80004FF482634FF4006408BF4FF4826208BFD1
:101B90004FF4806304604FF4805041F63054086085
:101BA0002020C2F20004A8504020E8509EF8000017
:101BB000E8B1DCF8000041F68C41C2F20001086097
:101BC00009682068514541F68C413CBF01302060D6
:101BD000C2F200010968CAEB0040514538BF01F567
:101BE0008031084441F69C41C2F20001086041F690
:101BF0004230C2F20000017804294BD80020DFE80F
:101C000001F0031944314400FFF7B5FC012871D1FC
:101C100041F2244C40F2040E41F6305441F6345760
:101C20000120C4F2000CC2F2000EC2F20004C2F2A3
:101C300000072AE000F09FF841F6345740F2040E06
:101C400041F6305441F2244C00284FF00300C2F218
:101C50000007C2F2000EC2F20004C4F2000C08BF7A
:101C6000042012E0FEF7B0FD41F6345740F2040EB6
:101C700041F6305441F2244CC2F20007C2F2000E89
:101C8000C2F20004C4F2000C002041F64231C2F25C
:101C9000000108709EF8000000283FF447AF41F6AD
:101CA0008C40C2F20000D0F800A041F69C40C2F285
:101CB0000000006849F28061C0F298018842FFF498
:101CC00035AFFEF76FFD42F60000C0F60000FFF7EB
:101CD000C9FC41F6345740F2040E41F6305441F24B
:101CE000244CC2F20007C2F2000EC2F20004C4F299
:101CF000000C1BE7FFF73FFC41F2244C40F2040EBE
:101D000041F6305441F634570228C4F2000CC2F2B6
:101D1000000EC2F20004C2F20007BBD10320B4E7F8
:101D200070B51C26C4F20206014600783268FC2811
:101D300022F0010228BFFC20326072684FF6FF7368
:101D40009A43024441F644650532041DC2F200057F
:101D5000726028462246FEF727FBE87821461030BD
:101D6000E8702846FEF780FC2855306840F00100F6
:101D7000306070BDFEE72DE9F04F81B041F6A4441C
:101D8000C2F2000420468521FEF753FB41F6405085
:101D9000C2F20000007841F6984741F63C58C2F282
:101DA0000007C2F2000838B33868D8F8001041F6CE
:101DB000445508440138C0B2C2F200052E5C3868B0
:101DC000D8F80010C2B20139CBB228464FF4807166
:101DD000FEF754FC864211D13868D8F8001001444F
:101DE0003868B1F5807F0BD8D8F80020291841F663
:101DF000A440C2F2000010E0062049E0012047E0C4
:101E00003968C0F58076294420463246FEF7CCFA80
:101E1000D8F80010A0198A1B2946FEF7C5FA41F62A
:101E2000385AC2F2000A9AF80060232E2FD841F6E1
:101E30003A59B4F80100C2F2000999F8005040F292
:101E4000680C227800BAC2F2000C4FF0860E94F8AB
:101E500003B0000C15FB0EC305FB0EF158800CF807
:101E60000120581D211D83F804B0FEF79DFA681C5F
:101E70004EF28F314143490D01EBC101A0EB8100CE
:101E800089F80000701C8AF8000001200CE0022094
:101E900041F64231C2F2000104220A7041F641319A
:101EA000C2F20001087000203968D8F800201144FF
:101EB000C9B2396001B0BDE8F08F10B541F64444B5
:101EC000C2F200042068013011D0E06878B1E06807
:101ED000B0F5807F0BD8E068C10242F60000C0F682
:101EE0000000FEF73FFB2168884208BF10BD40F2AA
:101EF0000400C2F200000021017010BD80B5FEF7A1
:101F0000A4FEFFF754FDFFF7D8FFFFF7B7FD002051
:101F100080BDF1EE100A4FF6FF71C0F2C03120EA29
:101F2000010040F04070E1EE100A70470000000030
:101F30000000000001020304060708090000000079
:101F400001020304681F00080000002008000000D0
:101F500014020008701F0008080000203825000047
:101F600030020008000000000024F400010000001E
:04000005080001D915
:00000001FF
