:020000040800F2
:10000000F01C002079020008D50F0008C90800087C
:10001000D10F000861050008F91900080000000070
:100020000000000000000000000000004510000873
:100030007307000800000000D70F000891020008B5
:10004000930200089302000893020008930200083C
:10005000930200089302000893020008930200082C
:10006000930200089302000893020008930200081C
:10007000930200089302000893020008930200080C
:100080009302000800000000930200089302000899
:1000900093020008930200089302000893020008EC
:1000A00093020008930200089302000893020008DC
:1000B00093020008930200089302000893020008CC
:1000C00093020008930200089302000893020008BC
:1000D00093020008930200089302000893020008AC
:1000E000930200089302000893020008930200089C
:1000F0009302000893020008930200080000000029
:1001000000000000930200080000000093020008B5
:100110009302000800000000930200086D1100081F
:10012000930200089302000893020008930200085B
:100130009302000800000000000000009302000885
:100140009302000893020008000000000000000075
:10015000000000000000000000000000000000009F
:1001600000000000000000000000000093020008F2
:1001700093020008000000000000000000000000E2
:1001800000000000930200080000000000000000D2
:10019000000000000000000000000000000000005F
:1001A0000000000000000000930200089302000815
:1001B0009302000893020008930200080000000068
:1001C0000000000093020008000000000000000092
:1001D000930200089302000800F002F800F03CF8D7
:1001E0000AA090E8000C82448344AAF10107DA4592
:1001F00001D100F031F8AFF2090EBAE80F0013F0A8
:10020000010F18BFFB1A43F0010318473418000010
:1002100054180000103A24BF78C878C1FAD85207A1
:1002200024BF30C830C144BF04680C607047000070
:100230000023002400250026103A28BF78C1FBD8EF
:10024000520728BF30C148BF0B6070471FB501F08F
:10025000DDFB1FBD10B510BD00F047F91146FFF7DB
:10026000F5FF01F0CAFB00F065F903B4FFF7F2FFF8
:1002700003BC00F06DF900000948804709480047B9
:10028000FEE7FEE7FEE7FEE7FEE7FEE7FEE7FEE746
:10029000FEE7FEE704480549054A064B70470000A3
:1002A0005B110008D9010008F0160020F01C0020A6
:1002B000F0180020F018002053EA020C00F06980CA
:1002C0002DE9F04B4FF00006002B1FBFB3FA83F56A
:1002D00003FA05F424FA05F65E4012BF1643B2FA9B
:1002E00082F502FA05F4C5F120051EBF22FA05FCCD
:1002F00044EA0C04203556EA044C4FEA144418BF73
:10030000641C4FF000084FF00009904271EB030CA1
:1003100039D3002919BFB1FA81F701FA07F6B0FA0B
:1003200080F700FA07F6C7F120071EBF20FA07FC86
:1003300046EA0C062037B6FBF4FCA7EB0507103F96
:1003400007F01F0BCBF120062CFA06F60CFA0BFB7C
:1003500044BFB3460026202FA4BF5E464FF0000BDB
:100360005BEA060C08BF4FF0010B19EB0B0948EBD9
:100370000608ABFB027C06FB02CC0BFB03CCC01BCC
:1003800071EB0C01C1E70B46024641464846BDE809
:10039000F08B13B5084318BF4FF0FF300146AFF3A1
:1003A0000080BDE81C407047032A40F2308010F006
:1003B000030C00F0158011F8013BBCF1020F624400
:1003C00098BF11F801CB00F8013B38BF11F8013B91
:1003D000A2F1040298BF00F801CB38BF00F8013B3E
:1003E00011F0030300F04F80083AC0F0088051F884
:1003F000043B083A51F804CBA0E80810F5E7121DB9
:100400005CBF51F8043B40F8043BAFF30080D207D7
:1004100024BF11F8013B11F801CB48BF11F8012BA3
:1004200024BF00F8013B00F801CB48BF00F8012BC6
:1004300070474FF0000200B51346944696462039A7
:1004400022BFA0E80C50A0E80C50B1F12001BFF48D
:10045000F7AF090728BFA0E80C5048BF0CC05DF8F3
:1004600004EB890028BF40F8042B08BF704748BF41
:1004700020F8022B11F0804F18BF00F8012B7047B5
:1004800070477047704710B5203AC0F00B80B1E854
:100490001850A0E81850B1E81850A0E81850203AB9
:1004A000BFF4F5AF5FEA027C24BFB1E81850A0E8C2
:1004B000185044BF18C918C0BDE810405FEA827CDC
:1004C00024BF51F8043B40F8043B08BF7047D207F3
:1004D00028BF31F8023B48BF11F8012B28BF20F894
:1004E000023B48BF00F8012B7047754600F02CF81E
:1004F000AE4605006946534620F00700854618B011
:1005000020B5FFF7C7FEBDE820404FF000064FF0D2
:1005100000074FF000084FF0000BAC46ACE8C009F4
:10052000ACE8C009ACE8C009ACE8C00921F007019B
:100530008D46704710B50446AFF300802046BDE8F5
:100540001040FFF792BE00000048704708000020EE
:1005500001491820ABBEFEE72600020070470000EC
:10056000FEE70000002221B110F8013B01391A44D6
:10057000FAD15042C0B27047B0B54FF0000C8BB109
:100580004FF0000E0EEB0204A5B2B5FBF1F50EF133
:10059000010E05FB11441FFA8EF5E4B2045D9D4285
:1005A000A444EFD3CCF10000C0B2B0BD82B041F2A0
:1005B0004800C4F2020001684EF60C5C41F00401F0
:1005C00001600168CEF2000C01F004010091009975
:1005D0000168002241F00101016000684EF2001341
:1005E00000F0010001900198DCF800104EF20B4180
:1005F000CEF200010A70CEF200034FF400601860E2
:10060000DCF800004A704FF48050186002B0704768
:1006100080B500F03BF800F006F800F06BF8BDE89C
:10062000804000F083B810B50024C4F20204A06832
:100630004FF4006120F00100A060E06920F00100AB
:10064000E0614EF28010CEF200000160BFF34F8FE8
:100650004FF48051BFF36F8F0160BFF34F8F20467F
:100660000021BFF36F8F00F03DF92046012100F01B
:1006700039F941F24800C4F20200016821F0010199
:100680000160016821F00401016010BDF0B587B080
:1006900041F60C0001AC0026019003274FF090407A
:1006A0002146CDE90566CDE90366029700F0D6F94B
:1006B00040F200456020C4F60005CDE90107284658
:1006C0002146059600F0CAF90120CDE90107284628
:1006D0002146059600F0C2F941F24C00C4F2020036
:1006E000016821F001010160016821F0020101604F
:1006F00007B0F0BD80B548F20000C4F20000016808
:1007000021F00101016000BF0168C907FCD100F0C0
:1007100028FA41F25C00C4F20200016821F00101F4
:100720000160C16A21F44061C16280BD80B541F2BF
:100730000040C4F2000001684FF4000221F0010102
:100740000160C16821F00101C1604EF28411CEF256
:1007500000010A60BFF34F8FBFF36F8F00F0ABFA59
:1007600041F25800C4F20200016821F0200101604A
:1007700080BD704781B01820C4F600004FF480514E
:1007800001604FF4006101614021C0F80014202194
:10079000C0F8101400200090009949F28060C0F267
:1007A000980000BF814224BF01B0704700BF00998C
:1007B000013100910099F5E781B01820C4F60000DE
:1007C0004FF4006101604FF4805101612021C0F8B5
:1007D00000144021C0F8101400200090009949F244
:1007E0008060C0F2980000BF814224BF01B0704712
:1007F00000BF0099013100910099F5E72DE9F0471C
:1008000088B0002641F24C000696C4F2020001684E
:1008100040F2004441F0200101600168C4F6000488
:1008200001F020010791079901684FF4805941F0C8
:100830000101016001684FF0200A01F001010791F8
:10084000079901684FF0400841F00201016000681B
:100850004FF4006100F00200079007984FF618402F
:10086000CFF6FF7001AD215044F80090C4F818A0F5
:10087000C4F81880019101274FF090402946CDE936
:100880000276CDE9046600F0E9F84FF09040294681
:10089000CDE90197CDE90366059600F0DFF8204623
:1008A0002946CDE901A7CDE90366059600F0D6F803
:1008B00020462946CDE90187CDE90366059600F07B
:1008C000CDF808B0BDE8F087FEE780B500F0DCFBAE
:1008D000FFF794FFFFF76AFE00F0B8FABDE880402A
:1008E00000F051BC10B511F5803F17D140F2004126
:1008F000C4F2020188424ED00021C4F202018842B3
:1009000040F0998041F22800C4F20200016841F0F1
:1009100001010160016821F0010147E00023C4F2F8
:10092000020340F21C4C9842C4F2020C08BF00299A
:100930003ED003F58062904208BF00293BD0984228
:1009400008BF01293AD0904208BF012939D0984206
:1009500008BF022937D0904208BF022936D09842FA
:1009600008BF032935D0904208BF032934D09842EC
:1009700008BF042933D0904208BF042932D080EA4E
:10098000030E81F005040CF1500254EA0E0408BF76
:1009900003F16C0228E041F22800C4F20200016871
:1009A00041F002010160016821F00201016052E0A2
:1009B00003F1080218E003F5816215E003F11C025F
:1009C00012E0624610E003F130020DE00CF1140277
:1009D0000AE003F1440207E00CF1280204E003F10D
:1009E000580201E00CF13C02136823F0010313608C
:1009F0004FF00003136053609360D3606FF0070201
:100A000002EAD01282F4000282F480620CEB8103CD
:100A100003EB8202D2F8E43323F0FF03C2F8E4339D
:100A200059B10139042906D8DFE801F003090C0F98
:100A3000120010210EE0012010BD01210AE04FF448
:100A4000807107E04FF4805104E04FF4803101E001
:100A50004FF480114160002010BD00002DE9F04FDF
:100A60000C6894FAA4F2B2FA82F234FA02F361D07A
:100A70004FF001084FF0030B08FA02F314EA030CDD
:100A800054D0D1F80490A9F10103022B1CD29CFA96
:100A9000ACF6B6FA86F77E00D0F808A00BFA06F39B
:100AA000D1E902BE2AEA030A0BFA06F545EA0A056D
:100AB000856045684FF0030BA5430EFB04F4DB4350
:100AC0002543456008E000BF9CFAACF3B3FA83F716
:100AD0007E000BFA06F3DB430D69C468B5401C4089
:100AE0002543B9F1020FC56019D14FEA1C2494FACD
:100AF000A4F4D1F814E0BCF5807F28BFB4FA84F7E1
:100B00004FF0240438BF202450F804C0BF000F2544
:100B1000BD402CEA05050EFA07F72F430751D1E92E
:100B200000470568B7402B403B430360013234FA6D
:100B300002F3A1D10020BDE8F08F44F6D351C1F2F9
:100B40006201A0FB01014FF0FF3000EB91104EF26B
:100B50001001CEF200014860002088600520086086
:100B6000704748F20001C4F2000188421CBF012016
:100B7000704741F23C00C4F20200016841F00101FB
:100B80000160016821F00101016000207047000050
:100B900070B504460068C00733D10D4620684EF694
:100BA000F311CEF6FF7105F1080608404ECE08435A
:100BB000184330432060606820F440501043606068
:100BC000A869A16821F440710843A0604FF4406017
:100BD00000F02EF8B8B16A68AAB129880EA333F8DC
:100BE00011100023B0FBF1F00026010E000210EB03
:100BF000520041F10001FFF75FFB6FF31F50E0600F
:100C000002E0012606E001262888E16A21F00F01B2
:100C10000843E062304670BD010002000400060097
:100C200008000A000C0010002000400080000001B5
:100C300010B541F20004C4F20204D4F88810084050
:100C40004FEAB020032807D002280CD0012813D186
:100C5000BDE8104000F0C0B9D4F890004FF4004156
:100C600001EA803010BD206842F200414005C0F228
:100C7000F40101EAE07010BD00F0AEF9A16841F6A0
:100C80002622C1F30311C0F60002515CA26841F6AE
:100C90003623C2F30222C0F600039A5C01F01F0162
:100CA000C84002F01F01C84010BD40F20001C2F26E
:100CB000000108607047014642F6FF30C4F20100AF
:100CC00081424FF0010024DC40F2FF72C4F20002C6
:100CD000914243DD40F60002C4F2000291426AD024
:100CE00041F20002C4F20002914270D041F200428F
:100CF000C4F20002914240F0A88041F23800C4F2F0
:100D00000200016841F020010160016821F020012A
:100D10008CE043F6FF72C4F20102914233DD44F2EB
:100D20000002C4F2010291425DD044F20042C4F2DA
:100D30000102914263D044F60002C4F201029142E2
:100D400018BF704741F23800C4F20200816841F4D4
:100D500080218160816821F4802174E0B1F1804FAD
:100D600059D040F20042C4F2000291426DD141F2EA
:100D70003800C4F20200016841F00201016001681C
:100D800021F0020152E042F60042C4F20102914217
:100D90004ED043F20042C4F20102914255D141F2D9
:100DA0003800C4F20200816841F40051816081681A
:100DB00021F4005147E041F23800C4F2020001681A
:100DC00041F004010160016821F004012EE041F2CC
:100DD0003800C4F20200016841F0100101600168AE
:100DE00021F0100122E041F23800C4F202008168D3
:100DF00041F480318160816821F4803123E041F247
:100E00003800C4F20200816841F4003181608168D9
:100E100021F4003117E041F23800C4F20200016809
:100E200041F001010160016821F0010101600BE066
:100E300041F23800C4F20200816841F4006181602F
:100E4000816821F400618160002070472DE9F04144
:100E50008EB041F24C00C4F20200C16B01AD21F42E
:100E60004061C163016948F2000441F00101016180
:100E70000169022701F00101079107990168002625
:100E800041F00101016000684FF00C0800F0010022
:100E900007900798042001904FF090402946C4F233
:100EA00000040297CDE903660596CDF81880FFF798
:100EB000D5FD0820CDE901074FF090402946CDE946
:100EC0000366CDE90568FFF7C9FD0820C4F20200FA
:100ED000D0F8F817222262F30701C0F8F81701686A
:100EE0004BF6EF72CFF6FF721140016001682327C5
:100EF00021F440510160016841F020010160016866
:100F000021F040010160016841F080010160016849
:100F100021F440710160016821F44061016040F6F4
:100F20000401C4F202010B6867F307030B60416917
:100F3000114010314161416921F4405141614169E1
:100F400021F020014161416921F040014161416985
:100F500041F080014161416921F440714161416981
:100F600021F44061416141F60030C0F2B700CDE9A3
:100F7000080607A920460796CDE90A66CDE90C8642
:100F8000FFF706FE48F20800C4F2000050E8001F18
:100F900021F0604140E80012002AF7D150E8001F1C
:100FA00021F0606140E80012002AF7D1206820F0AB
:100FB00000502060206840F001002060E06980025D
:100FC000FCD5E0694002F9D50EB0BDE8F081000023
:100FD000FEE70000FEE7704741F20C01C4F2020197
:100FE00051F8040C00F00C0242F200400C2AC0F24E
:100FF000F40007D0082A18BF704741F20020C0F261
:101000007A0070470A68034602F00302032A04BF0D
:1010100041F20023C0F27A03022A0A6808BF03469D
:10102000C2F306200A680968C2F30312584301326A
:10103000B0FBF2F0C1F34161022202EB4101B0FBCF
:10104000F1F070477047000041F24801C4F202011C
:101050004FF080520A6101228A614FF480720A6067
:10106000BFF34F8FBFF36F8FEFF3108172B64EF661
:101070000851CEF200010860016881F308884068D9
:10108000804700BFFEE7000010B582B042F20000CA
:10109000C4F202000168042262F30301016000BF90
:1010A000016801F00F010429FAD147F20001C4F2EE
:1010B00000010A68012341F2000063F34A22C4F2EE
:1010C00002000A60016841F480310160016889030F
:1010D000FCD5C16848F20C02CFF6FF12114042F273
:1010E00003421143C160C16841F08071C160016871
:1010F00041F08071016000BF01688901FCD5816801
:10110000082241F003018160816862F30711816068
:10111000816801F00C010C29FAD155210191019946
:1011200011B101990139F9E7816844F2004421F0D5
:10113000F00181608168C0F6950421F4E06181606E
:10114000816821F4605181602046FFF7F6FC20465B
:1011500002B0BDE81040FFF7A8BD4EF68850CEF2B1
:101160000000016841F470010160704741F21040D5
:10117000C4F200000168C90708BF70476FF00101A1
:10118000016000F061B881B041F25800C4F2020081
:10119000016841F02001016000684DF6836100F0B4
:1011A00020000090009840F20000C2F200000068A9
:1011B000C4F21B31A0FB01014FF0FF3000EB914066
:1011C00041F20041C4F2000188624FF6FF70C8622C
:1011D000086820F07000086001B070470820C4F271
:1011E000020001684FF4807321F00101016041F2B7
:1011F000F441C2F20001C16048F22401C4F20001CE
:1012000081604268043163F30F024260026842F079
:1012100001020260426922F00102426141F2F4528D
:10122000C2F200020262C1618169FC2262F30F0115
:10123000816141F20040C4F2000000214162016876
:1012400041F00101016070472DE9F04F81B041F29A
:101250002440C4F20000006841F24447C2F2000793
:1012600041F2E8443860C2F20004386821688842DC
:1012700005D220683968081A00F5803002E0386825
:101280002168401A41F2E0423B682668C2F200023F
:101290001168B3423CBF0131116000EB014041F2E3
:1012A0004C41C2F200010860086844F64031C0F2C7
:1012B0004C0188420FD341F25040C2F20000017845
:1012C000013101701820C4F600004FF48051016014
:1012D0004FF40061016141F24135C2F20005287806
:1012E000042800F22881DFE810F00500350026010F
:1012F000750099000C20C4F20200006841F2F4422B
:1013000080B2C0F5807141F2DC40C2F200000160A1
:1013100041F24841C2F200010968C2F20002525C87
:1013200041F2F043C2F200031A701A7841F2EC4322
:101330000532C2F200031A600268914240F07C80DC
:1013400041F2E440C2F200000078002800F0F3808F
:101350000320EFE041F25440C2F200008521FFF784
:1013600068F841F2F040C2F20000007841F2EC4B24
:1013700041F248480028C2F2000BC2F2000864D0D3
:10138000D8F80000DBF8001041F2F44901440139BB
:10139000C9B2C2F2000919F80160DBF80010C2B24C
:1013A0000139CBB248464FF48071FFF7E5F8864229
:1013B00051D1D8F800A0DBF800005044B0F5807F90
:1013C00052D8DBF8002041F2544009EB0A01C2F286
:1013D00000005BE041F2E440C2F200000178002925
:1013E00000F0A98041F2E542C2F20002127840F218
:1013F0006803C2F20003862612FB06321279012A24
:1014000002D0002A40F097800139017041F2E64095
:101410000022C2F200002A7002708CE041F24030DB
:10142000C2F200000078062800F28580DFE800F0B4
:1014300081818183838381000068401A41F24241A7
:10144000C2F200010870012074E041F24030C2F2A3
:101450000000062104E041F24030C2F20000012108
:10146000D8F800A001705EE041F25448CAF58076D9
:10147000C2F2000809EB0A0140463246FEF794FF2B
:10148000DBF8001008EB06008A1B4946FEF78CFFCC
:1014900041F2E440C2F200000678232E39D841F22E
:1014A0005441C2F2000141F2E543B1F80100C2F239
:1014B000000393F8009040F2680C00BAC2F2000CEE
:1014C0004FF0860E0A7891F80380000C19FB0EC3CA
:1014D00009FB0EFE5880581D043183F804800CF877
:1014E0000E20FEF761FF09F101004EF28F314143FA
:1014F000490D01EBC101A0EB810041F2E541C2F2CF
:101500000001087041F2E441701CC2F20001087051
:1015100005E041F24030C2F200000221017041F2C8
:101520004848C2F20008DBF800005044C0B2C8F8D6
:101530000000002028703868206001B0BDE8F08FFE
:1015400082B048F20800C4F2000000BF50E8001F5B
:1015500041F0400140E80012002AF7D150E8001F96
:1015600041F0800140E80012002AF7D141F2244006
:10157000C4F20000066841F2413441F2444941F2AC
:10158000DC4841F2484541F2E44C41F2EC4E41F274
:10159000E042C2F20004C2F20009C2F20008C2F244
:1015A0000005C2F2000CC2F2000E4FF0000BC2F2B6
:1015B00000024FF0010A0120019000BFBAF1000FB4
:1015C00025D041F22440C4F2000000681746C9F853
:1015D0000000D9F80000B0424FF0000038BF0120F1
:1015E000D9F80010D9F800301268C6EB0040B342B9
:1015F0003CBF01323A60084400EB024041F24C41EA
:1016000041F2E042C2F20001C2F20002086020781A
:10161000042800F28581DFE810F005001D00830139
:101620005B00A5000C20C4F20200006880B2C0F587
:101630008070C8F800002868D8F80010884240F090
:10164000A2809CF80000002800F06A81032020702E
:1016500066E100BF41F25440C2F200008521FEF76E
:10166000E8FE41F2F040C2F200000078002800F0ED
:10167000B88041F2EC4BC2F2000B2A68DBF8001094
:1016800041F2F44011440139C9B2C2F20000445C95
:10169000DBF80010D2B20139CBB24FF48071FEF703
:1016A0006BFF844240F0AE802D68DBF800002844D8
:1016B000B0F5807F00F2B88041F2F440C2F2000041
:1016C000DBF80020411941F25440C2F20000C2E0B0
:1016D0009CF80000002800F0238141F2E541C2F2AD
:1016E0000001097840F26802C2F20002862311FB71
:1016F00003221379012B64D0002B62D18623594336
:1017000040F26803C2F20003595C59B10532A4A348
:1017100017781D78AF4240F02C810133013902F176
:101720000102F5D10199002900F02381FFF744F867
:1017300041F24230C2F20000042101604BF2061176
:10174000CFF64E11416000F02DF941F2E44CC2F2A7
:10175000000C41F2EC4E9CF80000C2F2000E4FF07B
:10176000000A08E141F24030C2F200000078062889
:1017700000F2D680DFE800F0040404D4D4D40400DE
:1017800084F800B0CCE041F2F441C2F20001095CFF
:1017900041F2F042C2F20002117011780531CEF828
:1017A0000010D8F80010081A41F24241C2F20001BC
:1017B00008700878DEF8001081429CBF012020707C
:1017C0000AE001388CF8000041F2E640C2F2000065
:1017D00084F800B080F800B041F2E042C2F20002AA
:1017E0009EE029462D6841F2403041F2E44C41F23E
:1017F000EC4EC2F200000622C2F2000CC2F2000E51
:10180000027080E041F2403229462D680120C2F288
:10181000000241F2413441F2E44C1070C2F2000483
:10182000C2F2000CDE466CE041F2F447C5F580746C
:10183000C2F2000741F254407919C2F20000224678
:10184000FEF7B2FDDBF8001041F25440C2F2000096
:1018500020440A1B3946FEF7A7FD41F2E44CC2F2D0
:10186000000C9CF80040232C39D841F25441C2F2BC
:10187000000141F2E543B1F80100C2F2000393F820
:1018800000B040F2680E00BAC2F2000E86270A7855
:1018900091F803C0000C1BFB07E30BFB07F7588014
:1018A000581D043183F804C00EF80720FEF77CFDB4
:1018B0000BF101004EF28F314143490D01EBC101A3
:1018C000A0EB810041F2E54141F2E44CC2F200019B
:1018D000C2F2000C0870601C8CF8000005E041F2B8
:1018E0004030C2F200000221017041F2413441F265
:1018F000484141F2EC4EC2F20004C2F20001C2F2D1
:10190000000E4FF0000BDEF8000041F2E0422844E8
:10191000C0B2C2F20002086084F800B00D4600BFF9
:10192000BAF1000F3FF44AAE41F24C40C2F200005F
:10193000D9F80060006844F64031C0F24C0188429A
:10194000FFF43CAEFEF716FFFEF762FE42F2000027
:10195000C0F60000FFF778FB41F2E04241F2EC4EA6
:1019600041F2E44CC2F20002C2F2000EC2F2000CDC
:1019700024E60021019101388CF8000041F2E64094
:1019800041F2484541F2E042C2F20000C2F20005D5
:10199000C2F2000284F800B080F800B0C0E700BFD7
:1019A0000531F6B970B51C26C4F20206014600786E
:1019B0003268FC2822F0010228BFFC2032607268E5
:1019C0004FF6FF739A43024441F2F4550532041D69
:1019D000C2F20005726028462246FEF7E5FCE87870
:1019E00021461030E8702846FEF7BCFD28553068C7
:1019F00040F00100306070BDFEE780B5FEF765FF86
:101A0000FFF7ECFBFFF79CFD002080BDF1EE100A14
:101A10004FF6FF71C0F2C03120EA010040F0407083
:101A2000E1EE100A70470000000000000000010213
:101A30000304060708090000000001020304000077
:101A4000601A0008000000200800000014020008CE
:101A5000681A000808000020E81C00003002000896
:081A60000024F4000000000066
:04000005080001D915
:00000001FF
